{
	"Proxy.sol": {
		"MainProxy": {
			"abi": [
				{
					"inputs": [],
					"stateMutability": "nonpayable",
					"type": "constructor"
				},
				{
					"stateMutability": "payable",
					"type": "fallback"
				},
				{
					"inputs": [],
					"name": "ADMIN_SLOT",
					"outputs": [
						{
							"internalType": "bytes32",
							"name": "",
							"type": "bytes32"
						}
					],
					"stateMutability": "view",
					"type": "function"
				},
				{
					"inputs": [],
					"name": "IMPL_SLOT",
					"outputs": [
						{
							"internalType": "bytes32",
							"name": "",
							"type": "bytes32"
						}
					],
					"stateMutability": "view",
					"type": "function"
				},
				{
					"inputs": [],
					"name": "admin",
					"outputs": [
						{
							"internalType": "address",
							"name": "",
							"type": "address"
						}
					],
					"stateMutability": "view",
					"type": "function"
				},
				{
					"inputs": [],
					"name": "impl",
					"outputs": [
						{
							"internalType": "address",
							"name": "",
							"type": "address"
						}
					],
					"stateMutability": "view",
					"type": "function"
				},
				{
					"inputs": [
						{
							"internalType": "address",
							"name": "_newImpl",
							"type": "address"
						}
					],
					"name": "upgradeTo",
					"outputs": [],
					"stateMutability": "nonpayable",
					"type": "function"
				},
				{
					"stateMutability": "payable",
					"type": "receive"
				}
			],
			"devdoc": {
				"kind": "dev",
				"methods": {},
				"version": 1
			},
			"evm": {
				"assembly": "    /* \"Proxy.sol\":704:2799  contract MainProxy {... */\n  mstore(0x40, 0x80)\n    /* \"Proxy.sol\":960:1013  constructor(){... */\n  callvalue\n  dup1\n  iszero\n  tag_1\n  jumpi\n  0x00\n  dup1\n  revert\ntag_1:\n  pop\n    /* \"Proxy.sol\":984:1005  _setAdmin(msg.sender) */\n  tag_4\n    /* \"Proxy.sol\":994:1004  msg.sender */\n  caller\n    /* \"Proxy.sol\":984:993  _setAdmin */\n  shl(0x20, tag_5)\n    /* \"Proxy.sol\":984:1005  _setAdmin(msg.sender) */\n  0x20\n  shr\n  jump\t// in\ntag_4:\n    /* \"Proxy.sol\":704:2799  contract MainProxy {... */\n  jump(tag_6)\n    /* \"Proxy.sol\":2249:2369  function _setAdmin(address _newAdmin) private  {... */\ntag_5:\n    /* \"Proxy.sol\":2352:2361  _newAdmin */\n  dup1\n    /* \"Proxy.sol\":2307:2345  StorageSlot.getAddressSlot(ADMIN_SLOT) */\n  tag_8\n    /* \"Proxy.sol\":943:944  1 */\n  0x01\n    /* \"Proxy.sol\":909:941  keccak256(\"eip1967.proxy.admin\") */\n  0xb53127684a568b3173ae13b9f8a6016e243e63b6e8ee1178d6a717850b5d6104\n    /* \"Proxy.sol\":904:942  uint(keccak256(\"eip1967.proxy.admin\")) */\n  0x00\n  shr\n    /* \"Proxy.sol\":904:944  uint(keccak256(\"eip1967.proxy.admin\"))-1 */\n  tag_9\n  swap2\n  swap1\n  tag_10\n  jump\t// in\ntag_9:\n    /* \"Proxy.sol\":886:951  bytes32(... */\n  0x00\n  shl\n    /* \"Proxy.sol\":2307:2333  StorageSlot.getAddressSlot */\n  shl(0x20, tag_11)\n    /* \"Proxy.sol\":2307:2345  StorageSlot.getAddressSlot(ADMIN_SLOT) */\n  0x20\n  shr\n  jump\t// in\ntag_8:\n    /* \"Proxy.sol\":2307:2351  StorageSlot.getAddressSlot(ADMIN_SLOT).value */\n  0x00\n  add\n  0x00\n    /* \"Proxy.sol\":2307:2361  StorageSlot.getAddressSlot(ADMIN_SLOT).value=_newAdmin */\n  0x0100\n  exp\n  dup2\n  sload\n  dup2\n  0xffffffffffffffffffffffffffffffffffffffff\n  mul\n  not\n  and\n  swap1\n  dup4\n  0xffffffffffffffffffffffffffffffffffffffff\n  and\n  mul\n  or\n  swap1\n  sstore\n  pop\n    /* \"Proxy.sol\":2249:2369  function _setAdmin(address _newAdmin) private  {... */\n  pop\n  jump\t// out\n    /* \"Proxy.sol\":2889:3039  function getAddressSlot(bytes32 _slot)internal pure returns (AddressSlot storage r){... */\ntag_11:\n    /* \"Proxy.sol\":2950:2971  AddressSlot storage r */\n  0x00\n    /* \"Proxy.sol\":3016:3021  _slot */\n  dup2\n    /* \"Proxy.sol\":3006:3021  r.slot := _slot */\n  swap1\n  pop\n    /* \"Proxy.sol\":2889:3039  function getAddressSlot(bytes32 _slot)internal pure returns (AddressSlot storage r){... */\n  swap2\n  swap1\n  pop\n  jump\t// out\n    /* \"#utility.yul\":7:84   */\ntag_13:\n    /* \"#utility.yul\":44:51   */\n  0x00\n    /* \"#utility.yul\":73:78   */\n  dup2\n    /* \"#utility.yul\":62:78   */\n  swap1\n  pop\n    /* \"#utility.yul\":7:84   */\n  swap2\n  swap1\n  pop\n  jump\t// out\n    /* \"#utility.yul\":90:270   */\ntag_14:\n    /* \"#utility.yul\":138:215   */\n  0x4e487b7100000000000000000000000000000000000000000000000000000000\n    /* \"#utility.yul\":135:136   */\n  0x00\n    /* \"#utility.yul\":128:216   */\n  mstore\n    /* \"#utility.yul\":235:239   */\n  0x11\n    /* \"#utility.yul\":232:233   */\n  0x04\n    /* \"#utility.yul\":225:240   */\n  mstore\n    /* \"#utility.yul\":259:263   */\n  0x24\n    /* \"#utility.yul\":256:257   */\n  0x00\n    /* \"#utility.yul\":249:264   */\n  revert\n    /* \"#utility.yul\":276:470   */\ntag_10:\n    /* \"#utility.yul\":316:320   */\n  0x00\n    /* \"#utility.yul\":336:356   */\n  tag_19\n    /* \"#utility.yul\":354:355   */\n  dup3\n    /* \"#utility.yul\":336:356   */\n  tag_13\n  jump\t// in\ntag_19:\n    /* \"#utility.yul\":331:356   */\n  swap2\n  pop\n    /* \"#utility.yul\":370:390   */\n  tag_20\n    /* \"#utility.yul\":388:389   */\n  dup4\n    /* \"#utility.yul\":370:390   */\n  tag_13\n  jump\t// in\ntag_20:\n    /* \"#utility.yul\":365:390   */\n  swap3\n  pop\n    /* \"#utility.yul\":414:415   */\n  dup3\n    /* \"#utility.yul\":411:412   */\n  dup3\n    /* \"#utility.yul\":407:416   */\n  sub\n    /* \"#utility.yul\":399:416   */\n  swap1\n  pop\n    /* \"#utility.yul\":438:439   */\n  dup2\n    /* \"#utility.yul\":432:436   */\n  dup2\n    /* \"#utility.yul\":429:440   */\n  gt\n    /* \"#utility.yul\":426:463   */\n  iszero\n  tag_21\n  jumpi\n    /* \"#utility.yul\":443:461   */\n  tag_22\n  tag_14\n  jump\t// in\ntag_22:\n    /* \"#utility.yul\":426:463   */\ntag_21:\n    /* \"#utility.yul\":276:470   */\n  swap3\n  swap2\n  pop\n  pop\n  jump\t// out\n    /* \"Proxy.sol\":704:2799  contract MainProxy {... */\ntag_6:\n  dataSize(sub_0)\n  dup1\n  dataOffset(sub_0)\n  0x00\n  codecopy\n  0x00\n  return\nstop\n\nsub_0: assembly {\n        /* \"Proxy.sol\":704:2799  contract MainProxy {... */\n      mstore(0x40, 0x80)\n      jumpi(tag_1, lt(calldatasize, 0x04))\n      shr(0xe0, calldataload(0x00))\n      dup1\n      0x3659cfe6\n      eq\n      tag_3\n      jumpi\n      dup1\n      0x8abf6077\n      eq\n      tag_4\n      jumpi\n      dup1\n      0x9c4b32be\n      eq\n      tag_5\n      jumpi\n      dup1\n      0xa0ab35aa\n      eq\n      tag_6\n      jumpi\n      dup1\n      0xf851a440\n      eq\n      tag_7\n      jumpi\n      jump(tag_2)\n    tag_1:\n      jumpi(tag_2, calldatasize)\n        /* \"Proxy.sol\":1896:1917  _delegate(_getImpl()) */\n      tag_10\n        /* \"Proxy.sol\":1906:1916  _getImpl() */\n      tag_11\n        /* \"Proxy.sol\":1906:1914  _getImpl */\n      tag_12\n        /* \"Proxy.sol\":1906:1916  _getImpl() */\n      jump\t// in\n    tag_11:\n        /* \"Proxy.sol\":1896:1905  _delegate */\n      tag_13\n        /* \"Proxy.sol\":1896:1917  _delegate(_getImpl()) */\n      jump\t// in\n    tag_10:\n        /* \"Proxy.sol\":704:2799  contract MainProxy {... */\n      stop\n    tag_2:\n        /* \"Proxy.sol\":1823:1844  _delegate(_getImpl()) */\n      tag_16\n        /* \"Proxy.sol\":1833:1843  _getImpl() */\n      tag_17\n        /* \"Proxy.sol\":1833:1841  _getImpl */\n      tag_12\n        /* \"Proxy.sol\":1833:1843  _getImpl() */\n      jump\t// in\n    tag_17:\n        /* \"Proxy.sol\":1823:1832  _delegate */\n      tag_13\n        /* \"Proxy.sol\":1823:1844  _delegate(_getImpl()) */\n      jump\t// in\n    tag_16:\n        /* \"Proxy.sol\":704:2799  contract MainProxy {... */\n      stop\n        /* \"Proxy.sol\":1933:2112  function upgradeTo(address _newImpl) external {... */\n    tag_3:\n      callvalue\n      dup1\n      iszero\n      tag_18\n      jumpi\n      0x00\n      dup1\n      revert\n    tag_18:\n      pop\n      tag_19\n      0x04\n      dup1\n      calldatasize\n      sub\n      dup2\n      add\n      swap1\n      tag_20\n      swap2\n      swap1\n      tag_21\n      jump\t// in\n    tag_20:\n      tag_22\n      jump\t// in\n    tag_19:\n      stop\n        /* \"Proxy.sol\":2714:2796  function impl()external view returns (address){... */\n    tag_4:\n      callvalue\n      dup1\n      iszero\n      tag_23\n      jumpi\n      0x00\n      dup1\n      revert\n    tag_23:\n      pop\n      tag_24\n      tag_25\n      jump\t// in\n    tag_24:\n      mload(0x40)\n      tag_26\n      swap2\n      swap1\n      tag_27\n      jump\t// in\n    tag_26:\n      mload(0x40)\n      dup1\n      swap2\n      sub\n      swap1\n      return\n        /* \"Proxy.sol\":849:951  bytes32 public constant ADMIN_SLOT = bytes32(... */\n    tag_5:\n      callvalue\n      dup1\n      iszero\n      tag_28\n      jumpi\n      0x00\n      dup1\n      revert\n    tag_28:\n      pop\n      tag_29\n      tag_30\n      jump\t// in\n    tag_29:\n      mload(0x40)\n      tag_31\n      swap2\n      swap1\n      tag_32\n      jump\t// in\n    tag_31:\n      mload(0x40)\n      dup1\n      swap2\n      sub\n      swap1\n      return\n        /* \"Proxy.sol\":732:842  bytes32 public constant IMPL_SLOT = bytes32(... */\n    tag_6:\n      callvalue\n      dup1\n      iszero\n      tag_33\n      jumpi\n      0x00\n      dup1\n      revert\n    tag_33:\n      pop\n      tag_34\n      tag_35\n      jump\t// in\n    tag_34:\n      mload(0x40)\n      tag_36\n      swap2\n      swap1\n      tag_32\n      jump\t// in\n    tag_36:\n      mload(0x40)\n      dup1\n      swap2\n      sub\n      swap1\n      return\n        /* \"Proxy.sol\":2623:2708  function admin() external view returns (address){... */\n    tag_7:\n      callvalue\n      dup1\n      iszero\n      tag_37\n      jumpi\n      0x00\n      dup1\n      revert\n    tag_37:\n      pop\n      tag_38\n      tag_39\n      jump\t// in\n    tag_38:\n      mload(0x40)\n      tag_40\n      swap2\n      swap1\n      tag_27\n      jump\t// in\n    tag_40:\n      mload(0x40)\n      dup1\n      swap2\n      sub\n      swap1\n      return\n        /* \"Proxy.sol\":2377:2495  function _getImpl()private view returns (address){... */\n    tag_12:\n        /* \"Proxy.sol\":2418:2425  address */\n      0x00\n        /* \"Proxy.sol\":2444:2481  StorageSlot.getAddressSlot(IMPL_SLOT) */\n      tag_42\n        /* \"Proxy.sol\":834:835  1 */\n      0x01\n        /* \"Proxy.sol\":791:832  keccak256(\"eip1967.proxy.implementation\") */\n      0x360894a13ba1a3210667c828492db98dca3e2076cc3735a920a3ca505d382bbd\n        /* \"Proxy.sol\":786:833  uint(keccak256(\"eip1967.proxy.implementation\")) */\n      0x00\n      shr\n        /* \"Proxy.sol\":786:835  uint(keccak256(\"eip1967.proxy.implementation\"))-1 */\n      tag_43\n      swap2\n      swap1\n      tag_44\n      jump\t// in\n    tag_43:\n        /* \"Proxy.sol\":768:842  bytes32(... */\n      0x00\n      shl\n        /* \"Proxy.sol\":2444:2470  StorageSlot.getAddressSlot */\n      tag_45\n        /* \"Proxy.sol\":2444:2481  StorageSlot.getAddressSlot(IMPL_SLOT) */\n      jump\t// in\n    tag_42:\n        /* \"Proxy.sol\":2444:2487  StorageSlot.getAddressSlot(IMPL_SLOT).value */\n      0x00\n      add\n      0x00\n      swap1\n      sload\n      swap1\n      0x0100\n      exp\n      swap1\n      div\n      0xffffffffffffffffffffffffffffffffffffffff\n      and\n        /* \"Proxy.sol\":2437:2487  return StorageSlot.getAddressSlot(IMPL_SLOT).value */\n      swap1\n      pop\n        /* \"Proxy.sol\":2377:2495  function _getImpl()private view returns (address){... */\n      swap1\n      jump\t// out\n        /* \"Proxy.sol\":1088:1776  function _delegate(address _impl) private {... */\n    tag_13:\n        /* \"Proxy.sol\":1418:1432  calldatasize() */\n      calldatasize\n        /* \"Proxy.sol\":1416:1417  0 */\n      0x00\n        /* \"Proxy.sol\":1414:1415  0 */\n      dup1\n        /* \"Proxy.sol\":1401:1433  calldatacopy(0,0,calldatasize()) */\n      calldatacopy\n        /* \"Proxy.sol\":1511:1512  0 */\n      0x00\n        /* \"Proxy.sol\":1508:1509  0 */\n      dup1\n        /* \"Proxy.sol\":1492:1506  calldatasize() */\n      calldatasize\n        /* \"Proxy.sol\":1489:1490  0 */\n      0x00\n        /* \"Proxy.sol\":1482:1487  _impl */\n      dup5\n        /* \"Proxy.sol\":1475:1480  gas() */\n      gas\n        /* \"Proxy.sol\":1461:1514  delegatecall( gas(), _impl, 0, calldatasize(), 0, 0 ) */\n      delegatecall\n        /* \"Proxy.sol\":1547:1563  returndatasize() */\n      returndatasize\n        /* \"Proxy.sol\":1545:1546  0 */\n      0x00\n        /* \"Proxy.sol\":1543:1544  0 */\n      dup1\n        /* \"Proxy.sol\":1528:1564  returndatacopy(0,0,returndatasize()) */\n      returndatacopy\n        /* \"Proxy.sol\":1587:1593  result */\n      dup1\n        /* \"Proxy.sol\":1612:1613  0 */\n      0x00\n        /* \"Proxy.sol\":1607:1675  case 0 {... */\n      dup2\n      eq\n      tag_48\n      jumpi\n        /* \"Proxy.sol\":1726:1742  returndatasize() */\n      returndatasize\n        /* \"Proxy.sol\":1723:1724  0 */\n      0x00\n        /* \"Proxy.sol\":1716:1743  return(0, returndatasize()) */\n      return\n        /* \"Proxy.sol\":1607:1675  case 0 {... */\n    tag_48:\n        /* \"Proxy.sol\":1643:1659  returndatasize() */\n      returndatasize\n        /* \"Proxy.sol\":1640:1641  0 */\n      0x00\n        /* \"Proxy.sol\":1633:1660  revert(0, returndatasize()) */\n      revert\n        /* \"Proxy.sol\":1933:2112  function upgradeTo(address _newImpl) external {... */\n    tag_22:\n        /* \"Proxy.sol\":2011:2021  msg.sender */\n      caller\n        /* \"Proxy.sol\":1998:2021  _getAdmin()==msg.sender */\n      0xffffffffffffffffffffffffffffffffffffffff\n      and\n        /* \"Proxy.sol\":1998:2009  _getAdmin() */\n      tag_50\n        /* \"Proxy.sol\":1998:2007  _getAdmin */\n      tag_51\n        /* \"Proxy.sol\":1998:2009  _getAdmin() */\n      jump\t// in\n    tag_50:\n        /* \"Proxy.sol\":1998:2021  _getAdmin()==msg.sender */\n      0xffffffffffffffffffffffffffffffffffffffff\n      and\n      eq\n        /* \"Proxy.sol\":1990:2075  require(_getAdmin()==msg.sender,\"User not admin, thus not authorized to do upgrades\") */\n      tag_52\n      jumpi\n      mload(0x40)\n      0x08c379a000000000000000000000000000000000000000000000000000000000\n      dup2\n      mstore\n      0x04\n      add\n      tag_53\n      swap1\n      tag_54\n      jump\t// in\n    tag_53:\n      mload(0x40)\n      dup1\n      swap2\n      sub\n      swap1\n      revert\n    tag_52:\n        /* \"Proxy.sol\":2086:2104  _setImpl(_newImpl) */\n      tag_55\n        /* \"Proxy.sol\":2095:2103  _newImpl */\n      dup2\n        /* \"Proxy.sol\":2086:2094  _setImpl */\n      tag_56\n        /* \"Proxy.sol\":2086:2104  _setImpl(_newImpl) */\n      jump\t// in\n    tag_55:\n        /* \"Proxy.sol\":1933:2112  function upgradeTo(address _newImpl) external {... */\n      pop\n      jump\t// out\n        /* \"Proxy.sol\":2714:2796  function impl()external view returns (address){... */\n    tag_25:\n        /* \"Proxy.sol\":2752:2759  address */\n      0x00\n        /* \"Proxy.sol\":2778:2788  _getImpl() */\n      tag_58\n        /* \"Proxy.sol\":2778:2786  _getImpl */\n      tag_12\n        /* \"Proxy.sol\":2778:2788  _getImpl() */\n      jump\t// in\n    tag_58:\n        /* \"Proxy.sol\":2771:2788  return _getImpl() */\n      swap1\n      pop\n        /* \"Proxy.sol\":2714:2796  function impl()external view returns (address){... */\n      swap1\n      jump\t// out\n        /* \"Proxy.sol\":849:951  bytes32 public constant ADMIN_SLOT = bytes32(... */\n    tag_30:\n        /* \"Proxy.sol\":943:944  1 */\n      0x01\n        /* \"Proxy.sol\":909:941  keccak256(\"eip1967.proxy.admin\") */\n      0xb53127684a568b3173ae13b9f8a6016e243e63b6e8ee1178d6a717850b5d6104\n        /* \"Proxy.sol\":904:942  uint(keccak256(\"eip1967.proxy.admin\")) */\n      0x00\n      shr\n        /* \"Proxy.sol\":904:944  uint(keccak256(\"eip1967.proxy.admin\"))-1 */\n      tag_59\n      swap2\n      swap1\n      tag_44\n      jump\t// in\n    tag_59:\n        /* \"Proxy.sol\":886:951  bytes32(... */\n      0x00\n      shl\n        /* \"Proxy.sol\":849:951  bytes32 public constant ADMIN_SLOT = bytes32(... */\n      dup2\n      jump\t// out\n        /* \"Proxy.sol\":732:842  bytes32 public constant IMPL_SLOT = bytes32(... */\n    tag_35:\n        /* \"Proxy.sol\":834:835  1 */\n      0x01\n        /* \"Proxy.sol\":791:832  keccak256(\"eip1967.proxy.implementation\") */\n      0x360894a13ba1a3210667c828492db98dca3e2076cc3735a920a3ca505d382bbd\n        /* \"Proxy.sol\":786:833  uint(keccak256(\"eip1967.proxy.implementation\")) */\n      0x00\n      shr\n        /* \"Proxy.sol\":786:835  uint(keccak256(\"eip1967.proxy.implementation\"))-1 */\n      tag_60\n      swap2\n      swap1\n      tag_44\n      jump\t// in\n    tag_60:\n        /* \"Proxy.sol\":768:842  bytes32(... */\n      0x00\n      shl\n        /* \"Proxy.sol\":732:842  bytes32 public constant IMPL_SLOT = bytes32(... */\n      dup2\n      jump\t// out\n        /* \"Proxy.sol\":2623:2708  function admin() external view returns (address){... */\n    tag_39:\n        /* \"Proxy.sol\":2663:2670  address */\n      0x00\n        /* \"Proxy.sol\":2689:2700  _getAdmin() */\n      tag_62\n        /* \"Proxy.sol\":2689:2698  _getAdmin */\n      tag_51\n        /* \"Proxy.sol\":2689:2700  _getAdmin() */\n      jump\t// in\n    tag_62:\n        /* \"Proxy.sol\":2682:2700  return _getAdmin() */\n      swap1\n      pop\n        /* \"Proxy.sol\":2623:2708  function admin() external view returns (address){... */\n      swap1\n      jump\t// out\n        /* \"Proxy.sol\":2889:3039  function getAddressSlot(bytes32 _slot)internal pure returns (AddressSlot storage r){... */\n    tag_45:\n        /* \"Proxy.sol\":2950:2971  AddressSlot storage r */\n      0x00\n        /* \"Proxy.sol\":3016:3021  _slot */\n      dup2\n        /* \"Proxy.sol\":3006:3021  r.slot := _slot */\n      swap1\n      pop\n        /* \"Proxy.sol\":2889:3039  function getAddressSlot(bytes32 _slot)internal pure returns (AddressSlot storage r){... */\n      swap2\n      swap1\n      pop\n      jump\t// out\n        /* \"Proxy.sol\":2120:2241  function _getAdmin() private view returns (address){... */\n    tag_51:\n        /* \"Proxy.sol\":2163:2170  address */\n      0x00\n        /* \"Proxy.sol\":2189:2227  StorageSlot.getAddressSlot(ADMIN_SLOT) */\n      tag_65\n        /* \"Proxy.sol\":943:944  1 */\n      0x01\n        /* \"Proxy.sol\":909:941  keccak256(\"eip1967.proxy.admin\") */\n      0xb53127684a568b3173ae13b9f8a6016e243e63b6e8ee1178d6a717850b5d6104\n        /* \"Proxy.sol\":904:942  uint(keccak256(\"eip1967.proxy.admin\")) */\n      0x00\n      shr\n        /* \"Proxy.sol\":904:944  uint(keccak256(\"eip1967.proxy.admin\"))-1 */\n      tag_66\n      swap2\n      swap1\n      tag_44\n      jump\t// in\n    tag_66:\n        /* \"Proxy.sol\":886:951  bytes32(... */\n      0x00\n      shl\n        /* \"Proxy.sol\":2189:2215  StorageSlot.getAddressSlot */\n      tag_45\n        /* \"Proxy.sol\":2189:2227  StorageSlot.getAddressSlot(ADMIN_SLOT) */\n      jump\t// in\n    tag_65:\n        /* \"Proxy.sol\":2189:2233  StorageSlot.getAddressSlot(ADMIN_SLOT).value */\n      0x00\n      add\n      0x00\n      swap1\n      sload\n      swap1\n      0x0100\n      exp\n      swap1\n      div\n      0xffffffffffffffffffffffffffffffffffffffff\n      and\n        /* \"Proxy.sol\":2182:2233  return StorageSlot.getAddressSlot(ADMIN_SLOT).value */\n      swap1\n      pop\n        /* \"Proxy.sol\":2120:2241  function _getAdmin() private view returns (address){... */\n      swap1\n      jump\t// out\n        /* \"Proxy.sol\":2501:2617  function _setImpl(address _newImpl) private  {... */\n    tag_56:\n        /* \"Proxy.sol\":2601:2609  _newImpl */\n      dup1\n        /* \"Proxy.sol\":2557:2594  StorageSlot.getAddressSlot(IMPL_SLOT) */\n      tag_68\n        /* \"Proxy.sol\":834:835  1 */\n      0x01\n        /* \"Proxy.sol\":791:832  keccak256(\"eip1967.proxy.implementation\") */\n      0x360894a13ba1a3210667c828492db98dca3e2076cc3735a920a3ca505d382bbd\n        /* \"Proxy.sol\":786:833  uint(keccak256(\"eip1967.proxy.implementation\")) */\n      0x00\n      shr\n        /* \"Proxy.sol\":786:835  uint(keccak256(\"eip1967.proxy.implementation\"))-1 */\n      tag_69\n      swap2\n      swap1\n      tag_44\n      jump\t// in\n    tag_69:\n        /* \"Proxy.sol\":768:842  bytes32(... */\n      0x00\n      shl\n        /* \"Proxy.sol\":2557:2583  StorageSlot.getAddressSlot */\n      tag_45\n        /* \"Proxy.sol\":2557:2594  StorageSlot.getAddressSlot(IMPL_SLOT) */\n      jump\t// in\n    tag_68:\n        /* \"Proxy.sol\":2557:2600  StorageSlot.getAddressSlot(IMPL_SLOT).value */\n      0x00\n      add\n      0x00\n        /* \"Proxy.sol\":2557:2609  StorageSlot.getAddressSlot(IMPL_SLOT).value=_newImpl */\n      0x0100\n      exp\n      dup2\n      sload\n      dup2\n      0xffffffffffffffffffffffffffffffffffffffff\n      mul\n      not\n      and\n      swap1\n      dup4\n      0xffffffffffffffffffffffffffffffffffffffff\n      and\n      mul\n      or\n      swap1\n      sstore\n      pop\n        /* \"Proxy.sol\":2501:2617  function _setImpl(address _newImpl) private  {... */\n      pop\n      jump\t// out\n        /* \"#utility.yul\":88:205   */\n    tag_71:\n        /* \"#utility.yul\":197:198   */\n      0x00\n        /* \"#utility.yul\":194:195   */\n      dup1\n        /* \"#utility.yul\":187:199   */\n      revert\n        /* \"#utility.yul\":334:460   */\n    tag_73:\n        /* \"#utility.yul\":371:378   */\n      0x00\n        /* \"#utility.yul\":411:453   */\n      0xffffffffffffffffffffffffffffffffffffffff\n        /* \"#utility.yul\":404:409   */\n      dup3\n        /* \"#utility.yul\":400:454   */\n      and\n        /* \"#utility.yul\":389:454   */\n      swap1\n      pop\n        /* \"#utility.yul\":334:460   */\n      swap2\n      swap1\n      pop\n      jump\t// out\n        /* \"#utility.yul\":466:562   */\n    tag_74:\n        /* \"#utility.yul\":503:510   */\n      0x00\n        /* \"#utility.yul\":532:556   */\n      tag_91\n        /* \"#utility.yul\":550:555   */\n      dup3\n        /* \"#utility.yul\":532:556   */\n      tag_73\n      jump\t// in\n    tag_91:\n        /* \"#utility.yul\":521:556   */\n      swap1\n      pop\n        /* \"#utility.yul\":466:562   */\n      swap2\n      swap1\n      pop\n      jump\t// out\n        /* \"#utility.yul\":568:690   */\n    tag_75:\n        /* \"#utility.yul\":641:665   */\n      tag_93\n        /* \"#utility.yul\":659:664   */\n      dup2\n        /* \"#utility.yul\":641:665   */\n      tag_74\n      jump\t// in\n    tag_93:\n        /* \"#utility.yul\":634:639   */\n      dup2\n        /* \"#utility.yul\":631:666   */\n      eq\n        /* \"#utility.yul\":621:684   */\n      tag_94\n      jumpi\n        /* \"#utility.yul\":680:681   */\n      0x00\n        /* \"#utility.yul\":677:678   */\n      dup1\n        /* \"#utility.yul\":670:682   */\n      revert\n        /* \"#utility.yul\":621:684   */\n    tag_94:\n        /* \"#utility.yul\":568:690   */\n      pop\n      jump\t// out\n        /* \"#utility.yul\":696:835   */\n    tag_76:\n        /* \"#utility.yul\":742:747   */\n      0x00\n        /* \"#utility.yul\":780:786   */\n      dup2\n        /* \"#utility.yul\":767:787   */\n      calldataload\n        /* \"#utility.yul\":758:787   */\n      swap1\n      pop\n        /* \"#utility.yul\":796:829   */\n      tag_96\n        /* \"#utility.yul\":823:828   */\n      dup2\n        /* \"#utility.yul\":796:829   */\n      tag_75\n      jump\t// in\n    tag_96:\n        /* \"#utility.yul\":696:835   */\n      swap3\n      swap2\n      pop\n      pop\n      jump\t// out\n        /* \"#utility.yul\":841:1170   */\n    tag_21:\n        /* \"#utility.yul\":900:906   */\n      0x00\n        /* \"#utility.yul\":949:951   */\n      0x20\n        /* \"#utility.yul\":937:946   */\n      dup3\n        /* \"#utility.yul\":928:935   */\n      dup5\n        /* \"#utility.yul\":924:947   */\n      sub\n        /* \"#utility.yul\":920:952   */\n      slt\n        /* \"#utility.yul\":917:1036   */\n      iszero\n      tag_98\n      jumpi\n        /* \"#utility.yul\":955:1034   */\n      tag_99\n      tag_71\n      jump\t// in\n    tag_99:\n        /* \"#utility.yul\":917:1036   */\n    tag_98:\n        /* \"#utility.yul\":1075:1076   */\n      0x00\n        /* \"#utility.yul\":1100:1153   */\n      tag_100\n        /* \"#utility.yul\":1145:1152   */\n      dup5\n        /* \"#utility.yul\":1136:1142   */\n      dup3\n        /* \"#utility.yul\":1125:1134   */\n      dup6\n        /* \"#utility.yul\":1121:1143   */\n      add\n        /* \"#utility.yul\":1100:1153   */\n      tag_76\n      jump\t// in\n    tag_100:\n        /* \"#utility.yul\":1090:1153   */\n      swap2\n      pop\n        /* \"#utility.yul\":1046:1163   */\n      pop\n        /* \"#utility.yul\":841:1170   */\n      swap3\n      swap2\n      pop\n      pop\n      jump\t// out\n        /* \"#utility.yul\":1176:1294   */\n    tag_77:\n        /* \"#utility.yul\":1263:1287   */\n      tag_102\n        /* \"#utility.yul\":1281:1286   */\n      dup2\n        /* \"#utility.yul\":1263:1287   */\n      tag_74\n      jump\t// in\n    tag_102:\n        /* \"#utility.yul\":1258:1261   */\n      dup3\n        /* \"#utility.yul\":1251:1288   */\n      mstore\n        /* \"#utility.yul\":1176:1294   */\n      pop\n      pop\n      jump\t// out\n        /* \"#utility.yul\":1300:1522   */\n    tag_27:\n        /* \"#utility.yul\":1393:1397   */\n      0x00\n        /* \"#utility.yul\":1431:1433   */\n      0x20\n        /* \"#utility.yul\":1420:1429   */\n      dup3\n        /* \"#utility.yul\":1416:1434   */\n      add\n        /* \"#utility.yul\":1408:1434   */\n      swap1\n      pop\n        /* \"#utility.yul\":1444:1515   */\n      tag_104\n        /* \"#utility.yul\":1512:1513   */\n      0x00\n        /* \"#utility.yul\":1501:1510   */\n      dup4\n        /* \"#utility.yul\":1497:1514   */\n      add\n        /* \"#utility.yul\":1488:1494   */\n      dup5\n        /* \"#utility.yul\":1444:1515   */\n      tag_77\n      jump\t// in\n    tag_104:\n        /* \"#utility.yul\":1300:1522   */\n      swap3\n      swap2\n      pop\n      pop\n      jump\t// out\n        /* \"#utility.yul\":1528:1605   */\n    tag_78:\n        /* \"#utility.yul\":1565:1572   */\n      0x00\n        /* \"#utility.yul\":1594:1599   */\n      dup2\n        /* \"#utility.yul\":1583:1599   */\n      swap1\n      pop\n        /* \"#utility.yul\":1528:1605   */\n      swap2\n      swap1\n      pop\n      jump\t// out\n        /* \"#utility.yul\":1611:1729   */\n    tag_79:\n        /* \"#utility.yul\":1698:1722   */\n      tag_107\n        /* \"#utility.yul\":1716:1721   */\n      dup2\n        /* \"#utility.yul\":1698:1722   */\n      tag_78\n      jump\t// in\n    tag_107:\n        /* \"#utility.yul\":1693:1696   */\n      dup3\n        /* \"#utility.yul\":1686:1723   */\n      mstore\n        /* \"#utility.yul\":1611:1729   */\n      pop\n      pop\n      jump\t// out\n        /* \"#utility.yul\":1735:1957   */\n    tag_32:\n        /* \"#utility.yul\":1828:1832   */\n      0x00\n        /* \"#utility.yul\":1866:1868   */\n      0x20\n        /* \"#utility.yul\":1855:1864   */\n      dup3\n        /* \"#utility.yul\":1851:1869   */\n      add\n        /* \"#utility.yul\":1843:1869   */\n      swap1\n      pop\n        /* \"#utility.yul\":1879:1950   */\n      tag_109\n        /* \"#utility.yul\":1947:1948   */\n      0x00\n        /* \"#utility.yul\":1936:1945   */\n      dup4\n        /* \"#utility.yul\":1932:1949   */\n      add\n        /* \"#utility.yul\":1923:1929   */\n      dup5\n        /* \"#utility.yul\":1879:1950   */\n      tag_79\n      jump\t// in\n    tag_109:\n        /* \"#utility.yul\":1735:1957   */\n      swap3\n      swap2\n      pop\n      pop\n      jump\t// out\n        /* \"#utility.yul\":1963:2040   */\n    tag_80:\n        /* \"#utility.yul\":2000:2007   */\n      0x00\n        /* \"#utility.yul\":2029:2034   */\n      dup2\n        /* \"#utility.yul\":2018:2034   */\n      swap1\n      pop\n        /* \"#utility.yul\":1963:2040   */\n      swap2\n      swap1\n      pop\n      jump\t// out\n        /* \"#utility.yul\":2046:2226   */\n    tag_81:\n        /* \"#utility.yul\":2094:2171   */\n      0x4e487b7100000000000000000000000000000000000000000000000000000000\n        /* \"#utility.yul\":2091:2092   */\n      0x00\n        /* \"#utility.yul\":2084:2172   */\n      mstore\n        /* \"#utility.yul\":2191:2195   */\n      0x11\n        /* \"#utility.yul\":2188:2189   */\n      0x04\n        /* \"#utility.yul\":2181:2196   */\n      mstore\n        /* \"#utility.yul\":2215:2219   */\n      0x24\n        /* \"#utility.yul\":2212:2213   */\n      0x00\n        /* \"#utility.yul\":2205:2220   */\n      revert\n        /* \"#utility.yul\":2232:2426   */\n    tag_44:\n        /* \"#utility.yul\":2272:2276   */\n      0x00\n        /* \"#utility.yul\":2292:2312   */\n      tag_113\n        /* \"#utility.yul\":2310:2311   */\n      dup3\n        /* \"#utility.yul\":2292:2312   */\n      tag_80\n      jump\t// in\n    tag_113:\n        /* \"#utility.yul\":2287:2312   */\n      swap2\n      pop\n        /* \"#utility.yul\":2326:2346   */\n      tag_114\n        /* \"#utility.yul\":2344:2345   */\n      dup4\n        /* \"#utility.yul\":2326:2346   */\n      tag_80\n      jump\t// in\n    tag_114:\n        /* \"#utility.yul\":2321:2346   */\n      swap3\n      pop\n        /* \"#utility.yul\":2370:2371   */\n      dup3\n        /* \"#utility.yul\":2367:2368   */\n      dup3\n        /* \"#utility.yul\":2363:2372   */\n      sub\n        /* \"#utility.yul\":2355:2372   */\n      swap1\n      pop\n        /* \"#utility.yul\":2394:2395   */\n      dup2\n        /* \"#utility.yul\":2388:2392   */\n      dup2\n        /* \"#utility.yul\":2385:2396   */\n      gt\n        /* \"#utility.yul\":2382:2419   */\n      iszero\n      tag_115\n      jumpi\n        /* \"#utility.yul\":2399:2417   */\n      tag_116\n      tag_81\n      jump\t// in\n    tag_116:\n        /* \"#utility.yul\":2382:2419   */\n    tag_115:\n        /* \"#utility.yul\":2232:2426   */\n      swap3\n      swap2\n      pop\n      pop\n      jump\t// out\n        /* \"#utility.yul\":2432:2601   */\n    tag_82:\n        /* \"#utility.yul\":2516:2527   */\n      0x00\n        /* \"#utility.yul\":2550:2556   */\n      dup3\n        /* \"#utility.yul\":2545:2548   */\n      dup3\n        /* \"#utility.yul\":2538:2557   */\n      mstore\n        /* \"#utility.yul\":2590:2594   */\n      0x20\n        /* \"#utility.yul\":2585:2588   */\n      dup3\n        /* \"#utility.yul\":2581:2595   */\n      add\n        /* \"#utility.yul\":2566:2595   */\n      swap1\n      pop\n        /* \"#utility.yul\":2432:2601   */\n      swap3\n      swap2\n      pop\n      pop\n      jump\t// out\n        /* \"#utility.yul\":2607:2844   */\n    tag_83:\n        /* \"#utility.yul\":2747:2781   */\n      0x55736572206e6f742061646d696e2c2074687573206e6f7420617574686f7269\n        /* \"#utility.yul\":2743:2744   */\n      0x00\n        /* \"#utility.yul\":2735:2741   */\n      dup3\n        /* \"#utility.yul\":2731:2745   */\n      add\n        /* \"#utility.yul\":2724:2782   */\n      mstore\n        /* \"#utility.yul\":2816:2836   */\n      0x7a656420746f20646f2075706772616465730000000000000000000000000000\n        /* \"#utility.yul\":2811:2813   */\n      0x20\n        /* \"#utility.yul\":2803:2809   */\n      dup3\n        /* \"#utility.yul\":2799:2814   */\n      add\n        /* \"#utility.yul\":2792:2837   */\n      mstore\n        /* \"#utility.yul\":2607:2844   */\n      pop\n      jump\t// out\n        /* \"#utility.yul\":2850:3216   */\n    tag_84:\n        /* \"#utility.yul\":2992:2995   */\n      0x00\n        /* \"#utility.yul\":3013:3080   */\n      tag_120\n        /* \"#utility.yul\":3077:3079   */\n      0x32\n        /* \"#utility.yul\":3072:3075   */\n      dup4\n        /* \"#utility.yul\":3013:3080   */\n      tag_82\n      jump\t// in\n    tag_120:\n        /* \"#utility.yul\":3006:3080   */\n      swap2\n      pop\n        /* \"#utility.yul\":3089:3182   */\n      tag_121\n        /* \"#utility.yul\":3178:3181   */\n      dup3\n        /* \"#utility.yul\":3089:3182   */\n      tag_83\n      jump\t// in\n    tag_121:\n        /* \"#utility.yul\":3207:3209   */\n      0x40\n        /* \"#utility.yul\":3202:3205   */\n      dup3\n        /* \"#utility.yul\":3198:3210   */\n      add\n        /* \"#utility.yul\":3191:3210   */\n      swap1\n      pop\n        /* \"#utility.yul\":2850:3216   */\n      swap2\n      swap1\n      pop\n      jump\t// out\n        /* \"#utility.yul\":3222:3641   */\n    tag_54:\n        /* \"#utility.yul\":3388:3392   */\n      0x00\n        /* \"#utility.yul\":3426:3428   */\n      0x20\n        /* \"#utility.yul\":3415:3424   */\n      dup3\n        /* \"#utility.yul\":3411:3429   */\n      add\n        /* \"#utility.yul\":3403:3429   */\n      swap1\n      pop\n        /* \"#utility.yul\":3475:3484   */\n      dup2\n        /* \"#utility.yul\":3469:3473   */\n      dup2\n        /* \"#utility.yul\":3465:3485   */\n      sub\n        /* \"#utility.yul\":3461:3462   */\n      0x00\n        /* \"#utility.yul\":3450:3459   */\n      dup4\n        /* \"#utility.yul\":3446:3463   */\n      add\n        /* \"#utility.yul\":3439:3486   */\n      mstore\n        /* \"#utility.yul\":3503:3634   */\n      tag_123\n        /* \"#utility.yul\":3629:3633   */\n      dup2\n        /* \"#utility.yul\":3503:3634   */\n      tag_84\n      jump\t// in\n    tag_123:\n        /* \"#utility.yul\":3495:3634   */\n      swap1\n      pop\n        /* \"#utility.yul\":3222:3641   */\n      swap2\n      swap1\n      pop\n      jump\t// out\n\n    auxdata: 0xa2646970667358221220f2ea8e91b7a816a63059c4cf6200c11fabb3c40af73e5b3b81f33843706755e664736f6c634300081a0033\n}\n",
				"bytecode": {
					"linkReferences": {},
					"object": "608060405234801561000f575f80fd5b5061001f3361002460201b60201c565b610118565b8061006460017fb53127684a568b3173ae13b9f8a6016e243e63b6e8ee1178d6a717850b5d61045f1c61005791906100e5565b5f1b6100a660201b60201c565b5f015f6101000a81548173ffffffffffffffffffffffffffffffffffffffff021916908373ffffffffffffffffffffffffffffffffffffffff16021790555050565b5f819050919050565b5f819050919050565b7f4e487b71000000000000000000000000000000000000000000000000000000005f52601160045260245ffd5b5f6100ef826100af565b91506100fa836100af565b9250828203905081811115610112576101116100b8565b5b92915050565b6105d0806101255f395ff3fe60806040526004361061004d575f3560e01c80633659cfe6146100765780638abf60771461009e5780639c4b32be146100c8578063a0ab35aa146100f2578063f851a4401461011c57610064565b366100645761006261005d610146565b6101a7565b005b61007461006f610146565b6101a7565b005b348015610081575f80fd5b5061009c6004803603810190610097919061040f565b6101c6565b005b3480156100a9575f80fd5b506100b2610247565b6040516100bf9190610449565b60405180910390f35b3480156100d3575f80fd5b506100dc610255565b6040516100e9919061047a565b60405180910390f35b3480156100fd575f80fd5b50610106610289565b604051610113919061047a565b60405180910390f35b348015610127575f80fd5b506101306102bd565b60405161013d9190610449565b60405180910390f35b5f61018060017f360894a13ba1a3210667c828492db98dca3e2076cc3735a920a3ca505d382bbd5f1c61017991906104c9565b5f1b6102cb565b5f015f9054906101000a900473ffffffffffffffffffffffffffffffffffffffff16905090565b365f80375f80365f845af43d5f803e805f81146101c2573d5ff35b3d5ffd5b3373ffffffffffffffffffffffffffffffffffffffff166101e56102d4565b73ffffffffffffffffffffffffffffffffffffffff161461023b576040517f08c379a00000000000000000000000000000000000000000000000000000000081526004016102329061057c565b60405180910390fd5b61024481610335565b50565b5f610250610146565b905090565b60017fb53127684a568b3173ae13b9f8a6016e243e63b6e8ee1178d6a717850b5d61045f1c61028491906104c9565b5f1b81565b60017f360894a13ba1a3210667c828492db98dca3e2076cc3735a920a3ca505d382bbd5f1c6102b891906104c9565b5f1b81565b5f6102c66102d4565b905090565b5f819050919050565b5f61030e60017fb53127684a568b3173ae13b9f8a6016e243e63b6e8ee1178d6a717850b5d61045f1c61030791906104c9565b5f1b6102cb565b5f015f9054906101000a900473ffffffffffffffffffffffffffffffffffffffff16905090565b8061036f60017f360894a13ba1a3210667c828492db98dca3e2076cc3735a920a3ca505d382bbd5f1c61036891906104c9565b5f1b6102cb565b5f015f6101000a81548173ffffffffffffffffffffffffffffffffffffffff021916908373ffffffffffffffffffffffffffffffffffffffff16021790555050565b5f80fd5b5f73ffffffffffffffffffffffffffffffffffffffff82169050919050565b5f6103de826103b5565b9050919050565b6103ee816103d4565b81146103f8575f80fd5b50565b5f81359050610409816103e5565b92915050565b5f60208284031215610424576104236103b1565b5b5f610431848285016103fb565b91505092915050565b610443816103d4565b82525050565b5f60208201905061045c5f83018461043a565b92915050565b5f819050919050565b61047481610462565b82525050565b5f60208201905061048d5f83018461046b565b92915050565b5f819050919050565b7f4e487b71000000000000000000000000000000000000000000000000000000005f52601160045260245ffd5b5f6104d382610493565b91506104de83610493565b92508282039050818111156104f6576104f561049c565b5b92915050565b5f82825260208201905092915050565b7f55736572206e6f742061646d696e2c2074687573206e6f7420617574686f72695f8201527f7a656420746f20646f2075706772616465730000000000000000000000000000602082015250565b5f6105666032836104fc565b91506105718261050c565b604082019050919050565b5f6020820190508181035f8301526105938161055a565b905091905056fea2646970667358221220f2ea8e91b7a816a63059c4cf6200c11fabb3c40af73e5b3b81f33843706755e664736f6c634300081a0033",
					"opcodes": "PUSH1 0x80 PUSH1 0x40 MSTORE CALLVALUE DUP1 ISZERO PUSH2 0xF JUMPI PUSH0 DUP1 REVERT JUMPDEST POP PUSH2 0x1F CALLER PUSH2 0x24 PUSH1 0x20 SHL PUSH1 0x20 SHR JUMP JUMPDEST PUSH2 0x118 JUMP JUMPDEST DUP1 PUSH2 0x64 PUSH1 0x1 PUSH32 0xB53127684A568B3173AE13B9F8A6016E243E63B6E8EE1178D6A717850B5D6104 PUSH0 SHR PUSH2 0x57 SWAP2 SWAP1 PUSH2 0xE5 JUMP JUMPDEST PUSH0 SHL PUSH2 0xA6 PUSH1 0x20 SHL PUSH1 0x20 SHR JUMP JUMPDEST PUSH0 ADD PUSH0 PUSH2 0x100 EXP DUP2 SLOAD DUP2 PUSH20 0xFFFFFFFFFFFFFFFFFFFFFFFFFFFFFFFFFFFFFFFF MUL NOT AND SWAP1 DUP4 PUSH20 0xFFFFFFFFFFFFFFFFFFFFFFFFFFFFFFFFFFFFFFFF AND MUL OR SWAP1 SSTORE POP POP JUMP JUMPDEST PUSH0 DUP2 SWAP1 POP SWAP2 SWAP1 POP JUMP JUMPDEST PUSH0 DUP2 SWAP1 POP SWAP2 SWAP1 POP JUMP JUMPDEST PUSH32 0x4E487B7100000000000000000000000000000000000000000000000000000000 PUSH0 MSTORE PUSH1 0x11 PUSH1 0x4 MSTORE PUSH1 0x24 PUSH0 REVERT JUMPDEST PUSH0 PUSH2 0xEF DUP3 PUSH2 0xAF JUMP JUMPDEST SWAP2 POP PUSH2 0xFA DUP4 PUSH2 0xAF JUMP JUMPDEST SWAP3 POP DUP3 DUP3 SUB SWAP1 POP DUP2 DUP2 GT ISZERO PUSH2 0x112 JUMPI PUSH2 0x111 PUSH2 0xB8 JUMP JUMPDEST JUMPDEST SWAP3 SWAP2 POP POP JUMP JUMPDEST PUSH2 0x5D0 DUP1 PUSH2 0x125 PUSH0 CODECOPY PUSH0 RETURN INVALID PUSH1 0x80 PUSH1 0x40 MSTORE PUSH1 0x4 CALLDATASIZE LT PUSH2 0x4D JUMPI PUSH0 CALLDATALOAD PUSH1 0xE0 SHR DUP1 PUSH4 0x3659CFE6 EQ PUSH2 0x76 JUMPI DUP1 PUSH4 0x8ABF6077 EQ PUSH2 0x9E JUMPI DUP1 PUSH4 0x9C4B32BE EQ PUSH2 0xC8 JUMPI DUP1 PUSH4 0xA0AB35AA EQ PUSH2 0xF2 JUMPI DUP1 PUSH4 0xF851A440 EQ PUSH2 0x11C JUMPI PUSH2 0x64 JUMP JUMPDEST CALLDATASIZE PUSH2 0x64 JUMPI PUSH2 0x62 PUSH2 0x5D PUSH2 0x146 JUMP JUMPDEST PUSH2 0x1A7 JUMP JUMPDEST STOP JUMPDEST PUSH2 0x74 PUSH2 0x6F PUSH2 0x146 JUMP JUMPDEST PUSH2 0x1A7 JUMP JUMPDEST STOP JUMPDEST CALLVALUE DUP1 ISZERO PUSH2 0x81 JUMPI PUSH0 DUP1 REVERT JUMPDEST POP PUSH2 0x9C PUSH1 0x4 DUP1 CALLDATASIZE SUB DUP2 ADD SWAP1 PUSH2 0x97 SWAP2 SWAP1 PUSH2 0x40F JUMP JUMPDEST PUSH2 0x1C6 JUMP JUMPDEST STOP JUMPDEST CALLVALUE DUP1 ISZERO PUSH2 0xA9 JUMPI PUSH0 DUP1 REVERT JUMPDEST POP PUSH2 0xB2 PUSH2 0x247 JUMP JUMPDEST PUSH1 0x40 MLOAD PUSH2 0xBF SWAP2 SWAP1 PUSH2 0x449 JUMP JUMPDEST PUSH1 0x40 MLOAD DUP1 SWAP2 SUB SWAP1 RETURN JUMPDEST CALLVALUE DUP1 ISZERO PUSH2 0xD3 JUMPI PUSH0 DUP1 REVERT JUMPDEST POP PUSH2 0xDC PUSH2 0x255 JUMP JUMPDEST PUSH1 0x40 MLOAD PUSH2 0xE9 SWAP2 SWAP1 PUSH2 0x47A JUMP JUMPDEST PUSH1 0x40 MLOAD DUP1 SWAP2 SUB SWAP1 RETURN JUMPDEST CALLVALUE DUP1 ISZERO PUSH2 0xFD JUMPI PUSH0 DUP1 REVERT JUMPDEST POP PUSH2 0x106 PUSH2 0x289 JUMP JUMPDEST PUSH1 0x40 MLOAD PUSH2 0x113 SWAP2 SWAP1 PUSH2 0x47A JUMP JUMPDEST PUSH1 0x40 MLOAD DUP1 SWAP2 SUB SWAP1 RETURN JUMPDEST CALLVALUE DUP1 ISZERO PUSH2 0x127 JUMPI PUSH0 DUP1 REVERT JUMPDEST POP PUSH2 0x130 PUSH2 0x2BD JUMP JUMPDEST PUSH1 0x40 MLOAD PUSH2 0x13D SWAP2 SWAP1 PUSH2 0x449 JUMP JUMPDEST PUSH1 0x40 MLOAD DUP1 SWAP2 SUB SWAP1 RETURN JUMPDEST PUSH0 PUSH2 0x180 PUSH1 0x1 PUSH32 0x360894A13BA1A3210667C828492DB98DCA3E2076CC3735A920A3CA505D382BBD PUSH0 SHR PUSH2 0x179 SWAP2 SWAP1 PUSH2 0x4C9 JUMP JUMPDEST PUSH0 SHL PUSH2 0x2CB JUMP JUMPDEST PUSH0 ADD PUSH0 SWAP1 SLOAD SWAP1 PUSH2 0x100 EXP SWAP1 DIV PUSH20 0xFFFFFFFFFFFFFFFFFFFFFFFFFFFFFFFFFFFFFFFF AND SWAP1 POP SWAP1 JUMP JUMPDEST CALLDATASIZE PUSH0 DUP1 CALLDATACOPY PUSH0 DUP1 CALLDATASIZE PUSH0 DUP5 GAS DELEGATECALL RETURNDATASIZE PUSH0 DUP1 RETURNDATACOPY DUP1 PUSH0 DUP2 EQ PUSH2 0x1C2 JUMPI RETURNDATASIZE PUSH0 RETURN JUMPDEST RETURNDATASIZE PUSH0 REVERT JUMPDEST CALLER PUSH20 0xFFFFFFFFFFFFFFFFFFFFFFFFFFFFFFFFFFFFFFFF AND PUSH2 0x1E5 PUSH2 0x2D4 JUMP JUMPDEST PUSH20 0xFFFFFFFFFFFFFFFFFFFFFFFFFFFFFFFFFFFFFFFF AND EQ PUSH2 0x23B JUMPI PUSH1 0x40 MLOAD PUSH32 0x8C379A000000000000000000000000000000000000000000000000000000000 DUP2 MSTORE PUSH1 0x4 ADD PUSH2 0x232 SWAP1 PUSH2 0x57C JUMP JUMPDEST PUSH1 0x40 MLOAD DUP1 SWAP2 SUB SWAP1 REVERT JUMPDEST PUSH2 0x244 DUP2 PUSH2 0x335 JUMP JUMPDEST POP JUMP JUMPDEST PUSH0 PUSH2 0x250 PUSH2 0x146 JUMP JUMPDEST SWAP1 POP SWAP1 JUMP JUMPDEST PUSH1 0x1 PUSH32 0xB53127684A568B3173AE13B9F8A6016E243E63B6E8EE1178D6A717850B5D6104 PUSH0 SHR PUSH2 0x284 SWAP2 SWAP1 PUSH2 0x4C9 JUMP JUMPDEST PUSH0 SHL DUP2 JUMP JUMPDEST PUSH1 0x1 PUSH32 0x360894A13BA1A3210667C828492DB98DCA3E2076CC3735A920A3CA505D382BBD PUSH0 SHR PUSH2 0x2B8 SWAP2 SWAP1 PUSH2 0x4C9 JUMP JUMPDEST PUSH0 SHL DUP2 JUMP JUMPDEST PUSH0 PUSH2 0x2C6 PUSH2 0x2D4 JUMP JUMPDEST SWAP1 POP SWAP1 JUMP JUMPDEST PUSH0 DUP2 SWAP1 POP SWAP2 SWAP1 POP JUMP JUMPDEST PUSH0 PUSH2 0x30E PUSH1 0x1 PUSH32 0xB53127684A568B3173AE13B9F8A6016E243E63B6E8EE1178D6A717850B5D6104 PUSH0 SHR PUSH2 0x307 SWAP2 SWAP1 PUSH2 0x4C9 JUMP JUMPDEST PUSH0 SHL PUSH2 0x2CB JUMP JUMPDEST PUSH0 ADD PUSH0 SWAP1 SLOAD SWAP1 PUSH2 0x100 EXP SWAP1 DIV PUSH20 0xFFFFFFFFFFFFFFFFFFFFFFFFFFFFFFFFFFFFFFFF AND SWAP1 POP SWAP1 JUMP JUMPDEST DUP1 PUSH2 0x36F PUSH1 0x1 PUSH32 0x360894A13BA1A3210667C828492DB98DCA3E2076CC3735A920A3CA505D382BBD PUSH0 SHR PUSH2 0x368 SWAP2 SWAP1 PUSH2 0x4C9 JUMP JUMPDEST PUSH0 SHL PUSH2 0x2CB JUMP JUMPDEST PUSH0 ADD PUSH0 PUSH2 0x100 EXP DUP2 SLOAD DUP2 PUSH20 0xFFFFFFFFFFFFFFFFFFFFFFFFFFFFFFFFFFFFFFFF MUL NOT AND SWAP1 DUP4 PUSH20 0xFFFFFFFFFFFFFFFFFFFFFFFFFFFFFFFFFFFFFFFF AND MUL OR SWAP1 SSTORE POP POP JUMP JUMPDEST PUSH0 DUP1 REVERT JUMPDEST PUSH0 PUSH20 0xFFFFFFFFFFFFFFFFFFFFFFFFFFFFFFFFFFFFFFFF DUP3 AND SWAP1 POP SWAP2 SWAP1 POP JUMP JUMPDEST PUSH0 PUSH2 0x3DE DUP3 PUSH2 0x3B5 JUMP JUMPDEST SWAP1 POP SWAP2 SWAP1 POP JUMP JUMPDEST PUSH2 0x3EE DUP2 PUSH2 0x3D4 JUMP JUMPDEST DUP2 EQ PUSH2 0x3F8 JUMPI PUSH0 DUP1 REVERT JUMPDEST POP JUMP JUMPDEST PUSH0 DUP2 CALLDATALOAD SWAP1 POP PUSH2 0x409 DUP2 PUSH2 0x3E5 JUMP JUMPDEST SWAP3 SWAP2 POP POP JUMP JUMPDEST PUSH0 PUSH1 0x20 DUP3 DUP5 SUB SLT ISZERO PUSH2 0x424 JUMPI PUSH2 0x423 PUSH2 0x3B1 JUMP JUMPDEST JUMPDEST PUSH0 PUSH2 0x431 DUP5 DUP3 DUP6 ADD PUSH2 0x3FB JUMP JUMPDEST SWAP2 POP POP SWAP3 SWAP2 POP POP JUMP JUMPDEST PUSH2 0x443 DUP2 PUSH2 0x3D4 JUMP JUMPDEST DUP3 MSTORE POP POP JUMP JUMPDEST PUSH0 PUSH1 0x20 DUP3 ADD SWAP1 POP PUSH2 0x45C PUSH0 DUP4 ADD DUP5 PUSH2 0x43A JUMP JUMPDEST SWAP3 SWAP2 POP POP JUMP JUMPDEST PUSH0 DUP2 SWAP1 POP SWAP2 SWAP1 POP JUMP JUMPDEST PUSH2 0x474 DUP2 PUSH2 0x462 JUMP JUMPDEST DUP3 MSTORE POP POP JUMP JUMPDEST PUSH0 PUSH1 0x20 DUP3 ADD SWAP1 POP PUSH2 0x48D PUSH0 DUP4 ADD DUP5 PUSH2 0x46B JUMP JUMPDEST SWAP3 SWAP2 POP POP JUMP JUMPDEST PUSH0 DUP2 SWAP1 POP SWAP2 SWAP1 POP JUMP JUMPDEST PUSH32 0x4E487B7100000000000000000000000000000000000000000000000000000000 PUSH0 MSTORE PUSH1 0x11 PUSH1 0x4 MSTORE PUSH1 0x24 PUSH0 REVERT JUMPDEST PUSH0 PUSH2 0x4D3 DUP3 PUSH2 0x493 JUMP JUMPDEST SWAP2 POP PUSH2 0x4DE DUP4 PUSH2 0x493 JUMP JUMPDEST SWAP3 POP DUP3 DUP3 SUB SWAP1 POP DUP2 DUP2 GT ISZERO PUSH2 0x4F6 JUMPI PUSH2 0x4F5 PUSH2 0x49C JUMP JUMPDEST JUMPDEST SWAP3 SWAP2 POP POP JUMP JUMPDEST PUSH0 DUP3 DUP3 MSTORE PUSH1 0x20 DUP3 ADD SWAP1 POP SWAP3 SWAP2 POP POP JUMP JUMPDEST PUSH32 0x55736572206E6F742061646D696E2C2074687573206E6F7420617574686F7269 PUSH0 DUP3 ADD MSTORE PUSH32 0x7A656420746F20646F2075706772616465730000000000000000000000000000 PUSH1 0x20 DUP3 ADD MSTORE POP JUMP JUMPDEST PUSH0 PUSH2 0x566 PUSH1 0x32 DUP4 PUSH2 0x4FC JUMP JUMPDEST SWAP2 POP PUSH2 0x571 DUP3 PUSH2 0x50C JUMP JUMPDEST PUSH1 0x40 DUP3 ADD SWAP1 POP SWAP2 SWAP1 POP JUMP JUMPDEST PUSH0 PUSH1 0x20 DUP3 ADD SWAP1 POP DUP2 DUP2 SUB PUSH0 DUP4 ADD MSTORE PUSH2 0x593 DUP2 PUSH2 0x55A JUMP JUMPDEST SWAP1 POP SWAP2 SWAP1 POP JUMP INVALID LOG2 PUSH5 0x6970667358 0x22 SLT KECCAK256 CALLCODE 0xEA DUP15 SWAP2 0xB7 0xA8 AND 0xA6 ADDRESS MSIZE 0xC4 0xCF PUSH3 0xC11F 0xAB 0xB3 0xC4 EXP 0xF7 RETURNDATACOPY JUMPDEST EXTCODESIZE DUP2 RETURN CODESIZE NUMBER PUSH17 0x6755E664736F6C634300081A0033000000 "
				},
				"gasEstimates": {
					"creation": {
						"codeDepositCost": "297600",
						"executionCost": "infinite",
						"totalCost": "infinite"
					},
					"external": {
						"": "infinite",
						"ADMIN_SLOT()": "infinite",
						"IMPL_SLOT()": "infinite",
						"admin()": "infinite",
						"impl()": "infinite",
						"upgradeTo(address)": "infinite"
					},
					"internal": {
						"_delegate(address)": "infinite",
						"_getAdmin()": "infinite",
						"_getImpl()": "infinite",
						"_setAdmin(address)": "infinite",
						"_setImpl(address)": "infinite"
					}
				},
				"methodIdentifiers": {
					"ADMIN_SLOT()": "9c4b32be",
					"IMPL_SLOT()": "a0ab35aa",
					"admin()": "f851a440",
					"impl()": "8abf6077",
					"upgradeTo(address)": "3659cfe6"
				}
			},
			"storageLayout": {
				"storage": [],
				"types": null
			},
			"userdoc": {
				"kind": "user",
				"methods": {},
				"version": 1
			}
		}
	}
}