{
	"data": {
		"bytecode": {
			"linkReferences": {},
			"object": "6080604052348015600e575f80fd5b506103368061001c5f395ff3fe608060405234801561000f575f80fd5b506004361061003f575f3560e01c806309c2b6681461004357806369e0e75f14610061578063b98786d31461007f575b5f80fd5b61004b61009b565b60405161005891906101f4565b60405180910390f35b6100696100fc565b6040516100769190610225565b60405180910390f35b6100996004803603810190610094919061026c565b610130565b005b5f6100d560017f3f62353b832dfb552e2987ff862aa61e278c7ce4f9cedd836a008f62c54165c35f1c6100ce91906102cd565b5f1b6101ac565b5f015f9054906101000a900473ffffffffffffffffffffffffffffffffffffffff16905090565b60017f3f62353b832dfb552e2987ff862aa61e278c7ce4f9cedd836a008f62c54165c35f1c61012b91906102cd565b5f1b81565b8061016a60017f3f62353b832dfb552e2987ff862aa61e278c7ce4f9cedd836a008f62c54165c35f1c61016391906102cd565b5f1b6101ac565b5f015f6101000a81548173ffffffffffffffffffffffffffffffffffffffff021916908373ffffffffffffffffffffffffffffffffffffffff16021790555050565b5f819050919050565b5f73ffffffffffffffffffffffffffffffffffffffff82169050919050565b5f6101de826101b5565b9050919050565b6101ee816101d4565b82525050565b5f6020820190506102075f8301846101e5565b92915050565b5f819050919050565b61021f8161020d565b82525050565b5f6020820190506102385f830184610216565b92915050565b5f80fd5b61024b816101d4565b8114610255575f80fd5b50565b5f8135905061026681610242565b92915050565b5f602082840312156102815761028061023e565b5b5f61028e84828501610258565b91505092915050565b5f819050919050565b7f4e487b71000000000000000000000000000000000000000000000000000000005f52601160045260245ffd5b5f6102d782610297565b91506102e283610297565b92508282039050818111156102fa576102f96102a0565b5b9291505056fea2646970667358221220d0791617f66c8a55babe19a185de9e51725bda7d7f24fb076d92cb8b022779d564736f6c634300081a0033",
			"opcodes": "PUSH1 0x80 PUSH1 0x40 MSTORE CALLVALUE DUP1 ISZERO PUSH1 0xE JUMPI PUSH0 DUP1 REVERT JUMPDEST POP PUSH2 0x336 DUP1 PUSH2 0x1C PUSH0 CODECOPY PUSH0 RETURN INVALID PUSH1 0x80 PUSH1 0x40 MSTORE CALLVALUE DUP1 ISZERO PUSH2 0xF JUMPI PUSH0 DUP1 REVERT JUMPDEST POP PUSH1 0x4 CALLDATASIZE LT PUSH2 0x3F JUMPI PUSH0 CALLDATALOAD PUSH1 0xE0 SHR DUP1 PUSH4 0x9C2B668 EQ PUSH2 0x43 JUMPI DUP1 PUSH4 0x69E0E75F EQ PUSH2 0x61 JUMPI DUP1 PUSH4 0xB98786D3 EQ PUSH2 0x7F JUMPI JUMPDEST PUSH0 DUP1 REVERT JUMPDEST PUSH2 0x4B PUSH2 0x9B JUMP JUMPDEST PUSH1 0x40 MLOAD PUSH2 0x58 SWAP2 SWAP1 PUSH2 0x1F4 JUMP JUMPDEST PUSH1 0x40 MLOAD DUP1 SWAP2 SUB SWAP1 RETURN JUMPDEST PUSH2 0x69 PUSH2 0xFC JUMP JUMPDEST PUSH1 0x40 MLOAD PUSH2 0x76 SWAP2 SWAP1 PUSH2 0x225 JUMP JUMPDEST PUSH1 0x40 MLOAD DUP1 SWAP2 SUB SWAP1 RETURN JUMPDEST PUSH2 0x99 PUSH1 0x4 DUP1 CALLDATASIZE SUB DUP2 ADD SWAP1 PUSH2 0x94 SWAP2 SWAP1 PUSH2 0x26C JUMP JUMPDEST PUSH2 0x130 JUMP JUMPDEST STOP JUMPDEST PUSH0 PUSH2 0xD5 PUSH1 0x1 PUSH32 0x3F62353B832DFB552E2987FF862AA61E278C7CE4F9CEDD836A008F62C54165C3 PUSH0 SHR PUSH2 0xCE SWAP2 SWAP1 PUSH2 0x2CD JUMP JUMPDEST PUSH0 SHL PUSH2 0x1AC JUMP JUMPDEST PUSH0 ADD PUSH0 SWAP1 SLOAD SWAP1 PUSH2 0x100 EXP SWAP1 DIV PUSH20 0xFFFFFFFFFFFFFFFFFFFFFFFFFFFFFFFFFFFFFFFF AND SWAP1 POP SWAP1 JUMP JUMPDEST PUSH1 0x1 PUSH32 0x3F62353B832DFB552E2987FF862AA61E278C7CE4F9CEDD836A008F62C54165C3 PUSH0 SHR PUSH2 0x12B SWAP2 SWAP1 PUSH2 0x2CD JUMP JUMPDEST PUSH0 SHL DUP2 JUMP JUMPDEST DUP1 PUSH2 0x16A PUSH1 0x1 PUSH32 0x3F62353B832DFB552E2987FF862AA61E278C7CE4F9CEDD836A008F62C54165C3 PUSH0 SHR PUSH2 0x163 SWAP2 SWAP1 PUSH2 0x2CD JUMP JUMPDEST PUSH0 SHL PUSH2 0x1AC JUMP JUMPDEST PUSH0 ADD PUSH0 PUSH2 0x100 EXP DUP2 SLOAD DUP2 PUSH20 0xFFFFFFFFFFFFFFFFFFFFFFFFFFFFFFFFFFFFFFFF MUL NOT AND SWAP1 DUP4 PUSH20 0xFFFFFFFFFFFFFFFFFFFFFFFFFFFFFFFFFFFFFFFF AND MUL OR SWAP1 SSTORE POP POP JUMP JUMPDEST PUSH0 DUP2 SWAP1 POP SWAP2 SWAP1 POP JUMP JUMPDEST PUSH0 PUSH20 0xFFFFFFFFFFFFFFFFFFFFFFFFFFFFFFFFFFFFFFFF DUP3 AND SWAP1 POP SWAP2 SWAP1 POP JUMP JUMPDEST PUSH0 PUSH2 0x1DE DUP3 PUSH2 0x1B5 JUMP JUMPDEST SWAP1 POP SWAP2 SWAP1 POP JUMP JUMPDEST PUSH2 0x1EE DUP2 PUSH2 0x1D4 JUMP JUMPDEST DUP3 MSTORE POP POP JUMP JUMPDEST PUSH0 PUSH1 0x20 DUP3 ADD SWAP1 POP PUSH2 0x207 PUSH0 DUP4 ADD DUP5 PUSH2 0x1E5 JUMP JUMPDEST SWAP3 SWAP2 POP POP JUMP JUMPDEST PUSH0 DUP2 SWAP1 POP SWAP2 SWAP1 POP JUMP JUMPDEST PUSH2 0x21F DUP2 PUSH2 0x20D JUMP JUMPDEST DUP3 MSTORE POP POP JUMP JUMPDEST PUSH0 PUSH1 0x20 DUP3 ADD SWAP1 POP PUSH2 0x238 PUSH0 DUP4 ADD DUP5 PUSH2 0x216 JUMP JUMPDEST SWAP3 SWAP2 POP POP JUMP JUMPDEST PUSH0 DUP1 REVERT JUMPDEST PUSH2 0x24B DUP2 PUSH2 0x1D4 JUMP JUMPDEST DUP2 EQ PUSH2 0x255 JUMPI PUSH0 DUP1 REVERT JUMPDEST POP JUMP JUMPDEST PUSH0 DUP2 CALLDATALOAD SWAP1 POP PUSH2 0x266 DUP2 PUSH2 0x242 JUMP JUMPDEST SWAP3 SWAP2 POP POP JUMP JUMPDEST PUSH0 PUSH1 0x20 DUP3 DUP5 SUB SLT ISZERO PUSH2 0x281 JUMPI PUSH2 0x280 PUSH2 0x23E JUMP JUMPDEST JUMPDEST PUSH0 PUSH2 0x28E DUP5 DUP3 DUP6 ADD PUSH2 0x258 JUMP JUMPDEST SWAP2 POP POP SWAP3 SWAP2 POP POP JUMP JUMPDEST PUSH0 DUP2 SWAP1 POP SWAP2 SWAP1 POP JUMP JUMPDEST PUSH32 0x4E487B7100000000000000000000000000000000000000000000000000000000 PUSH0 MSTORE PUSH1 0x11 PUSH1 0x4 MSTORE PUSH1 0x24 PUSH0 REVERT JUMPDEST PUSH0 PUSH2 0x2D7 DUP3 PUSH2 0x297 JUMP JUMPDEST SWAP2 POP PUSH2 0x2E2 DUP4 PUSH2 0x297 JUMP JUMPDEST SWAP3 POP DUP3 DUP3 SUB SWAP1 POP DUP2 DUP2 GT ISZERO PUSH2 0x2FA JUMPI PUSH2 0x2F9 PUSH2 0x2A0 JUMP JUMPDEST JUMPDEST SWAP3 SWAP2 POP POP JUMP INVALID LOG2 PUSH5 0x6970667358 0x22 SLT KECCAK256 0xD0 PUSH26 0x1617F66C8A55BABE19A185DE9E51725BDA7D7F24FB076D92CB8B MUL 0x27 PUSH26 0xD564736F6C634300081A00330000000000000000000000000000 "
		},
		"gasEstimates": {
			"creation": {
				"codeDepositCost": "164400",
				"executionCost": "206",
				"totalCost": "164606"
			},
			"external": {
				"TESTING_SLOT()": "infinite",
				"getMySlot()": "infinite",
				"setMySlot(address)": "infinite"
			}
		},
		"methodIdentifiers": {
			"TESTING_SLOT()": "69e0e75f",
			"getMySlot()": "09c2b668",
			"setMySlot(address)": "b98786d3"
		}
	},
	"abi": [
		{
			"inputs": [],
			"name": "TESTING_SLOT",
			"outputs": [
				{
					"internalType": "bytes32",
					"name": "",
					"type": "bytes32"
				}
			],
			"stateMutability": "view",
			"type": "function"
		},
		{
			"inputs": [],
			"name": "getMySlot",
			"outputs": [
				{
					"internalType": "address",
					"name": "",
					"type": "address"
				}
			],
			"stateMutability": "view",
			"type": "function"
		},
		{
			"inputs": [
				{
					"internalType": "address",
					"name": "_newAddress",
					"type": "address"
				}
			],
			"name": "setMySlot",
			"outputs": [],
			"stateMutability": "nonpayable",
			"type": "function"
		}
	]
}